{
  "contractName": "Campaign",
  "abi": [
    {
      "constant": true,
      "inputs": [
        {
          "name": "",
          "type": "address"
        }
      ],
      "name": "approvers",
      "outputs": [
        {
          "name": "",
          "type": "bool"
        }
      ],
      "payable": false,
      "stateMutability": "view",
      "type": "function",
      "signature": "0x0a144391"
    },
    {
      "constant": true,
      "inputs": [],
      "name": "manager",
      "outputs": [
        {
          "name": "",
          "type": "address"
        }
      ],
      "payable": false,
      "stateMutability": "view",
      "type": "function",
      "signature": "0x481c6a75"
    },
    {
      "constant": true,
      "inputs": [
        {
          "name": "",
          "type": "uint256"
        }
      ],
      "name": "requests",
      "outputs": [
        {
          "name": "description",
          "type": "string"
        },
        {
          "name": "value",
          "type": "uint256"
        },
        {
          "name": "recipient",
          "type": "address"
        },
        {
          "name": "complete",
          "type": "bool"
        },
        {
          "name": "approvalCount",
          "type": "uint256"
        }
      ],
      "payable": false,
      "stateMutability": "view",
      "type": "function",
      "signature": "0x81d12c58"
    },
    {
      "constant": true,
      "inputs": [],
      "name": "approversCount",
      "outputs": [
        {
          "name": "",
          "type": "uint256"
        }
      ],
      "payable": false,
      "stateMutability": "view",
      "type": "function",
      "signature": "0x82fde093"
    },
    {
      "constant": true,
      "inputs": [],
      "name": "minimumContribution",
      "outputs": [
        {
          "name": "",
          "type": "uint256"
        }
      ],
      "payable": false,
      "stateMutability": "view",
      "type": "function",
      "signature": "0x937e09b1"
    },
    {
      "inputs": [
        {
          "name": "minimum",
          "type": "uint256"
        },
        {
          "name": "creator",
          "type": "address"
        }
      ],
      "payable": false,
      "stateMutability": "nonpayable",
      "type": "constructor",
      "signature": "constructor"
    },
    {
      "constant": false,
      "inputs": [],
      "name": "contribute",
      "outputs": [],
      "payable": true,
      "stateMutability": "payable",
      "type": "function",
      "signature": "0xd7bb99ba"
    },
    {
      "constant": false,
      "inputs": [
        {
          "name": "description",
          "type": "string"
        },
        {
          "name": "value",
          "type": "uint256"
        },
        {
          "name": "recipient",
          "type": "address"
        }
      ],
      "name": "createRequest",
      "outputs": [],
      "payable": false,
      "stateMutability": "nonpayable",
      "type": "function",
      "signature": "0x8a9cfd55"
    },
    {
      "constant": false,
      "inputs": [
        {
          "name": "index",
          "type": "uint256"
        }
      ],
      "name": "approveRequest",
      "outputs": [],
      "payable": false,
      "stateMutability": "nonpayable",
      "type": "function",
      "signature": "0xd7d1bbdb"
    },
    {
      "constant": false,
      "inputs": [
        {
          "name": "index",
          "type": "uint256"
        }
      ],
      "name": "finalizeRequest",
      "outputs": [],
      "payable": false,
      "stateMutability": "nonpayable",
      "type": "function",
      "signature": "0x03441006"
    },
    {
      "constant": true,
      "inputs": [],
      "name": "getSummary",
      "outputs": [
        {
          "name": "",
          "type": "uint256"
        },
        {
          "name": "",
          "type": "uint256"
        },
        {
          "name": "",
          "type": "uint256"
        },
        {
          "name": "",
          "type": "uint256"
        },
        {
          "name": "",
          "type": "address"
        }
      ],
      "payable": false,
      "stateMutability": "view",
      "type": "function",
      "signature": "0x4051ddac"
    },
    {
      "constant": true,
      "inputs": [],
      "name": "getRequestsCount",
      "outputs": [
        {
          "name": "",
          "type": "uint256"
        }
      ],
      "payable": false,
      "stateMutability": "view",
      "type": "function",
      "signature": "0x3410452a"
    }
  ],
  "bytecode": "0x608060405234801561001057600080fd5b50604051604080610cdb8339810180604052604081101561003057600080fd5b81019080805190602001909291908051906020019092919050505080600160006101000a81548173ffffffffffffffffffffffffffffffffffffffff021916908373ffffffffffffffffffffffffffffffffffffffff160217905550816002819055505050610c37806100a46000396000f3fe6080604052600436106100a9576000357c01000000000000000000000000000000000000000000000000000000009004806303441006146100ae5780630a144391146100e95780633410452a146101525780634051ddac1461017d578063481c6a75146101f057806381d12c581461024757806382fde093146103475780638a9cfd5514610372578063937e09b114610464578063d7bb99ba1461048f578063d7d1bbdb14610499575b600080fd5b3480156100ba57600080fd5b506100e7600480360360208110156100d157600080fd5b81019080803590602001909291905050506104d4565b005b3480156100f557600080fd5b506101386004803603602081101561010c57600080fd5b81019080803573ffffffffffffffffffffffffffffffffffffffff16906020019092919050505061061e565b604051808215151515815260200191505060405180910390f35b34801561015e57600080fd5b5061016761063e565b6040518082815260200191505060405180910390f35b34801561018957600080fd5b5061019261064a565b604051808681526020018581526020018481526020018381526020018273ffffffffffffffffffffffffffffffffffffffff1673ffffffffffffffffffffffffffffffffffffffff1681526020019550505050505060405180910390f35b3480156101fc57600080fd5b506102056106aa565b604051808273ffffffffffffffffffffffffffffffffffffffff1673ffffffffffffffffffffffffffffffffffffffff16815260200191505060405180910390f35b34801561025357600080fd5b506102806004803603602081101561026a57600080fd5b81019080803590602001909291905050506106d0565b60405180806020018681526020018573ffffffffffffffffffffffffffffffffffffffff1673ffffffffffffffffffffffffffffffffffffffff16815260200184151515158152602001838152602001828103825287818151815260200191508051906020019080838360005b838110156103085780820151818401526020810190506102ed565b50505050905090810190601f1680156103355780820380516001836020036101000a031916815260200191505b50965050505050505060405180910390f35b34801561035357600080fd5b5061035c6107da565b6040518082815260200191505060405180910390f35b34801561037e57600080fd5b506104626004803603606081101561039557600080fd5b81019080803590602001906401000000008111156103b257600080fd5b8201836020820111156103c457600080fd5b803590602001918460018302840111640100000000831117156103e657600080fd5b91908080601f016020809104026020016040519081016040528093929190818152602001838380828437600081840152601f19601f82011690508083019250505050505050919291929080359060200190929190803573ffffffffffffffffffffffffffffffffffffffff1690602001909291905050506107e0565b005b34801561047057600080fd5b50610479610957565b6040518082815260200191505060405180910390f35b61049761095d565b005b3480156104a557600080fd5b506104d2600480360360208110156104bc57600080fd5b81019080803590602001909291905050506109d9565b005b600160009054906101000a900473ffffffffffffffffffffffffffffffffffffffff1673ffffffffffffffffffffffffffffffffffffffff163373ffffffffffffffffffffffffffffffffffffffff1614151561053057600080fd5b6000808281548110151561054057fe5b90600052602060002090600502019050600260045481151561055e57fe5b04816003015411151561057057600080fd5b8060020160149054906101000a900460ff1615151561058e57600080fd5b8060020160009054906101000a900473ffffffffffffffffffffffffffffffffffffffff1673ffffffffffffffffffffffffffffffffffffffff166108fc82600101549081150290604051600060405180830381858888f193505050501580156105fc573d6000803e3d6000fd5b5060018160020160146101000a81548160ff0219169083151502179055505050565b60036020528060005260406000206000915054906101000a900460ff1681565b60008080549050905090565b60008060008060006002543073ffffffffffffffffffffffffffffffffffffffff1631600080549050600454600160009054906101000a900473ffffffffffffffffffffffffffffffffffffffff16945094509450945094509091929394565b600160009054906101000a900473ffffffffffffffffffffffffffffffffffffffff1681565b6000818154811015156106df57fe5b9060005260206000209060050201600091509050806000018054600181600116156101000203166002900480601f01602080910402602001604051908101604052809291908181526020018280546001816001161561010002031660029004801561078b5780601f106107605761010080835404028352916020019161078b565b820191906000526020600020905b81548152906001019060200180831161076e57829003601f168201915b5050505050908060010154908060020160009054906101000a900473ffffffffffffffffffffffffffffffffffffffff16908060020160149054906101000a900460ff16908060030154905085565b60045481565b600160009054906101000a900473ffffffffffffffffffffffffffffffffffffffff1673ffffffffffffffffffffffffffffffffffffffff163373ffffffffffffffffffffffffffffffffffffffff1614151561083c57600080fd5b610844610b1e565b60a0604051908101604052808581526020018481526020018373ffffffffffffffffffffffffffffffffffffffff168152602001600015158152602001600081525090506000819080600181540180825580915050906001820390600052602060002090600502016000909192909190915060008201518160000190805190602001906108d2929190610b66565b506020820151816001015560408201518160020160006101000a81548173ffffffffffffffffffffffffffffffffffffffff021916908373ffffffffffffffffffffffffffffffffffffffff16021790555060608201518160020160146101000a81548160ff0219169083151502179055506080820151816003015550505050505050565b60025481565b6002543411151561096d57600080fd5b6001600360003373ffffffffffffffffffffffffffffffffffffffff1673ffffffffffffffffffffffffffffffffffffffff16815260200190815260200160002060006101000a81548160ff021916908315150217905550600460008154809291906001019190505550565b600080828154811015156109e957fe5b90600052602060002090600502019050600360003373ffffffffffffffffffffffffffffffffffffffff1673ffffffffffffffffffffffffffffffffffffffff16815260200190815260200160002060009054906101000a900460ff161515610a5157600080fd5b8060040160003373ffffffffffffffffffffffffffffffffffffffff1673ffffffffffffffffffffffffffffffffffffffff16815260200190815260200160002060009054906101000a900460ff16151515610aac57600080fd5b60018160040160003373ffffffffffffffffffffffffffffffffffffffff1673ffffffffffffffffffffffffffffffffffffffff16815260200190815260200160002060006101000a81548160ff02191690831515021790555080600301600081548092919060010191905055505050565b60a0604051908101604052806060815260200160008152602001600073ffffffffffffffffffffffffffffffffffffffff168152602001600015158152602001600081525090565b828054600181600116156101000203166002900490600052602060002090601f016020900481019282601f10610ba757805160ff1916838001178555610bd5565b82800160010185558215610bd5579182015b82811115610bd4578251825591602001919060010190610bb9565b5b509050610be29190610be6565b5090565b610c0891905b80821115610c04576000816000905550600101610bec565b5090565b9056fea165627a7a72305820206251a2f3b6c6aa3e93c78e91bc41565fa480a61d80cc15050a1a818cd7c5d00029",
  "source": "pragma solidity >=0.4.21 <0.6.0;\n\ncontract Campaign {\n    struct Request {\n        string description;\n        uint value;\n        address payable recipient;\n        bool complete;\n        uint approvalCount;\n        mapping(address => bool) approvals;\n    }\n\n    Request[] public requests;\n    address public manager;\n    uint public minimumContribution;\n    mapping(address => bool) public approvers;\n    uint public approversCount;\n\n    modifier restricted() {\n        require(msg.sender == manager);\n        _;\n    }\n\n    constructor(uint minimum, address creator) public {\n        manager = creator;\n        minimumContribution = minimum;\n    }\n\n    function contribute() public payable {\n        require(msg.value > minimumContribution);\n\n        approvers[msg.sender] = true;\n        approversCount++;\n    }\n\n    function createRequest(string memory description, uint value, address payable recipient) public restricted {\n        Request memory newRequest = Request({\n            description: description,\n            value: value,\n            recipient: recipient,\n            complete: false,\n            approvalCount: 0\n        });\n\n        requests.push(newRequest);\n    }\n\n    function approveRequest(uint index) public {\n        Request storage request = requests[index];\n\n        require(approvers[msg.sender]);\n        require(!request.approvals[msg.sender]);\n\n        request.approvals[msg.sender] = true;\n        request.approvalCount++;\n    }\n\n    function finalizeRequest(uint index)  public restricted {\n        Request storage request = requests[index];\n\n        require(request.approvalCount > (approversCount / 2));\n        require(!request.complete);\n\n        request.recipient.transfer(request.value);\n        request.complete = true;\n    }\n\n    function getSummary() public view returns (\n      uint, uint, uint, uint, address\n      ) {\n        return (\n          minimumContribution,\n          address(this).balance,\n          requests.length,\n          approversCount,\n          manager\n        );\n    }\n\n    function getRequestsCount() public view returns (uint) {\n        return requests.length;\n    }\n}",
  "sourcePath": "/home/gnasamx/Workspace/Github/LearningCode/Ethereum & Solidity/truffle-react/contracts/Campaign.sol",
  "compiler": {
    "name": "solc",
    "version": "0.5.1+commit.c8a2cb62.Linux.g++"
  },
  "schemaVersion": "3.0.2",
  "updatedAt": "2019-04-01T03:41:28.417Z",
  "devdoc": {
    "methods": {}
  },
  "userdoc": {
    "methods": {}
  }
}